:020000000328D3
:100006008316031385018601073083129F0085013D
:10001600860105140514051C1F280B30FB0026302D
:10002600FC005D30FD00FD0B1628FC0B1628FB0BB3
:1000360016280000000006140614061C4E280B3075
:10004600FB002630FC005D30FD00FD0B2828FC0B74
:100056002828FB0B28280000000006100B30FB00A8
:100066002630FC005D30FD00FD0B3728FC0B3728E1
:10007600FB0B37280000000005100B30FB00263074
:10008600FC005D30FD00FD0B4628FC0B4628FB0BF3
:0A0096004628000000000D284F2846
:02400E007B2114
:00000001FF
