:020000000328D3
:100006008316031386018312860107309F00013091
:1000160086008230FC00DD30FD00FD0B1028FC0B55
:10002600102800000000023086008230FC00DD301F
:10003600FD00FD0B1C28FC0B1C28000000000430F2
:1000460086008230FC00DD30FD00FD0B2828FC0B0D
:10005600282800000000083086008230FC00DD30D1
:10006600FD00FD0B3428FC0B342800000000103086
:1000760086008230FC00DD30FD00FD0B4028FC0BC5
:10008600402800000000103086008230FC00DD3081
:10009600FD00FD0B4C28FC0B4C2800000000203016
:1000A60086008230FC00DD30FD00FD0B5828FC0B7D
:1000B600582800000000403086008230FC00DD3009
:1000C600FD00FD0B6428FC0B642800000000803056
:1000D60086008230FC00DD30FD00FD0B7028FC0B35
:1000E600702800000000803086008230FC00DD3081
:1000F600FD00FD0B7C28FC0B7C2800000000403036
:1001060086008230FC00DD30FD00FD0B8828FC0BEC
:10011600882800000000203086008230FC00DD3098
:10012600FD00FD0B9428FC0B942800000000103005
:1001360086008230FC00DD30FD00FD0BA028FC0BA4
:10014600A02800000000083086008230FC00DD3068
:10015600FD00FD0BAC28FC0BAC28000000000430B1
:1001660086008230FC00DD30FD00FD0BB828FC0B5C
:10017600B82800000000023086008230FC00DD3026
:10018600FD00FD0BC428FC0BC42800000000013054
:1001960086008230FC00DD30FD00FD0BD028FC0B14
:0A01A600D028000000000A28D72826
:02400E007B2114
:00000001FF
