:020000001628C0
:0E0006008312031322088A00210882000800DA
:1000140003208A110A128000840AA10A0319A20A81
:08002400F003031D0A28080087
:10002C0083120313A001013083168500860107306B
:10003C0083129F0085018601051C2528A00A051C3A
:10004C00282825283228061442288614422806150A
:10005C0042288601A00142282008013A03192928C8
:10006C002008023A03192B282008033A03192D28DB
:0C007C002008043A03192F2822284328EA
:02400E00792116
:00000001FF
